{
  "_format": "hh-sol-artifact-1",
  "contractName": "SmartContract",
  "sourceName": "contracts/SmartContract.sol",
  "abi": [
    {
      "inputs": [
        {
          "internalType": "address payable",
          "name": "minter",
          "type": "address"
        },
        {
          "internalType": "string",
          "name": "baseTokenURI",
          "type": "string"
        },
        {
          "internalType": "uint256",
          "name": "maxTokenCount",
          "type": "uint256"
        },
        {
          "internalType": "uint256",
          "name": "minPrice",
          "type": "uint256"
        }
      ],
      "stateMutability": "nonpayable",
      "type": "constructor"
    },
    {
      "anonymous": false,
      "inputs": [
        {
          "indexed": true,
          "internalType": "address",
          "name": "owner",
          "type": "address"
        },
        {
          "indexed": true,
          "internalType": "address",
          "name": "approved",
          "type": "address"
        },
        {
          "indexed": true,
          "internalType": "uint256",
          "name": "tokenId",
          "type": "uint256"
        }
      ],
      "name": "Approval",
      "type": "event"
    },
    {
      "anonymous": false,
      "inputs": [
        {
          "indexed": true,
          "internalType": "address",
          "name": "owner",
          "type": "address"
        },
        {
          "indexed": true,
          "internalType": "address",
          "name": "operator",
          "type": "address"
        },
        {
          "indexed": false,
          "internalType": "bool",
          "name": "approved",
          "type": "bool"
        }
      ],
      "name": "ApprovalForAll",
      "type": "event"
    },
    {
      "anonymous": false,
      "inputs": [
        {
          "indexed": true,
          "internalType": "address",
          "name": "previousOwner",
          "type": "address"
        },
        {
          "indexed": true,
          "internalType": "address",
          "name": "newOwner",
          "type": "address"
        }
      ],
      "name": "OwnershipTransferred",
      "type": "event"
    },
    {
      "anonymous": false,
      "inputs": [
        {
          "indexed": true,
          "internalType": "bytes32",
          "name": "role",
          "type": "bytes32"
        },
        {
          "indexed": true,
          "internalType": "bytes32",
          "name": "previousAdminRole",
          "type": "bytes32"
        },
        {
          "indexed": true,
          "internalType": "bytes32",
          "name": "newAdminRole",
          "type": "bytes32"
        }
      ],
      "name": "RoleAdminChanged",
      "type": "event"
    },
    {
      "anonymous": false,
      "inputs": [
        {
          "indexed": true,
          "internalType": "bytes32",
          "name": "role",
          "type": "bytes32"
        },
        {
          "indexed": true,
          "internalType": "address",
          "name": "account",
          "type": "address"
        },
        {
          "indexed": true,
          "internalType": "address",
          "name": "sender",
          "type": "address"
        }
      ],
      "name": "RoleGranted",
      "type": "event"
    },
    {
      "anonymous": false,
      "inputs": [
        {
          "indexed": true,
          "internalType": "bytes32",
          "name": "role",
          "type": "bytes32"
        },
        {
          "indexed": true,
          "internalType": "address",
          "name": "account",
          "type": "address"
        },
        {
          "indexed": true,
          "internalType": "address",
          "name": "sender",
          "type": "address"
        }
      ],
      "name": "RoleRevoked",
      "type": "event"
    },
    {
      "anonymous": false,
      "inputs": [
        {
          "indexed": true,
          "internalType": "address",
          "name": "from",
          "type": "address"
        },
        {
          "indexed": true,
          "internalType": "address",
          "name": "to",
          "type": "address"
        },
        {
          "indexed": true,
          "internalType": "uint256",
          "name": "tokenId",
          "type": "uint256"
        }
      ],
      "name": "Transfer",
      "type": "event"
    },
    {
      "inputs": [],
      "name": "DEFAULT_ADMIN_ROLE",
      "outputs": [
        {
          "internalType": "bytes32",
          "name": "",
          "type": "bytes32"
        }
      ],
      "stateMutability": "view",
      "type": "function"
    },
    {
      "inputs": [],
      "name": "MINTER_ROLE",
      "outputs": [
        {
          "internalType": "bytes32",
          "name": "",
          "type": "bytes32"
        }
      ],
      "stateMutability": "view",
      "type": "function"
    },
    {
      "inputs": [
        {
          "internalType": "address",
          "name": "to",
          "type": "address"
        },
        {
          "internalType": "uint256",
          "name": "tokenId",
          "type": "uint256"
        }
      ],
      "name": "approve",
      "outputs": [],
      "stateMutability": "nonpayable",
      "type": "function"
    },
    {
      "inputs": [],
      "name": "availableToMint",
      "outputs": [
        {
          "internalType": "uint256",
          "name": "",
          "type": "uint256"
        }
      ],
      "stateMutability": "view",
      "type": "function"
    },
    {
      "inputs": [
        {
          "internalType": "address",
          "name": "owner",
          "type": "address"
        }
      ],
      "name": "balanceOf",
      "outputs": [
        {
          "internalType": "uint256",
          "name": "",
          "type": "uint256"
        }
      ],
      "stateMutability": "view",
      "type": "function"
    },
    {
      "inputs": [],
      "name": "baseURI",
      "outputs": [
        {
          "internalType": "string",
          "name": "",
          "type": "string"
        }
      ],
      "stateMutability": "view",
      "type": "function"
    },
    {
      "inputs": [
        {
          "internalType": "uint256",
          "name": "tokenId",
          "type": "uint256"
        }
      ],
      "name": "getApproved",
      "outputs": [
        {
          "internalType": "address",
          "name": "",
          "type": "address"
        }
      ],
      "stateMutability": "view",
      "type": "function"
    },
    {
      "inputs": [
        {
          "components": [
            {
              "internalType": "uint256",
              "name": "minPrice",
              "type": "uint256"
            },
            {
              "internalType": "uint256",
              "name": "supply",
              "type": "uint256"
            },
            {
              "internalType": "uint256",
              "name": "expiration",
              "type": "uint256"
            },
            {
              "internalType": "uint256",
              "name": "maxRedeem",
              "type": "uint256"
            },
            {
              "internalType": "string",
              "name": "uri",
              "type": "string"
            },
            {
              "internalType": "bytes",
              "name": "signature",
              "type": "bytes"
            }
          ],
          "internalType": "struct SmartContract.NFTVoucher",
          "name": "voucher",
          "type": "tuple"
        }
      ],
      "name": "getAvailableVoucher",
      "outputs": [
        {
          "internalType": "uint256",
          "name": "",
          "type": "uint256"
        }
      ],
      "stateMutability": "view",
      "type": "function"
    },
    {
      "inputs": [],
      "name": "getChainID",
      "outputs": [
        {
          "internalType": "uint256",
          "name": "",
          "type": "uint256"
        }
      ],
      "stateMutability": "view",
      "type": "function"
    },
    {
      "inputs": [],
      "name": "getMaxToken",
      "outputs": [
        {
          "internalType": "uint256",
          "name": "",
          "type": "uint256"
        }
      ],
      "stateMutability": "view",
      "type": "function"
    },
    {
      "inputs": [],
      "name": "getMintCost",
      "outputs": [
        {
          "internalType": "uint256",
          "name": "",
          "type": "uint256"
        }
      ],
      "stateMutability": "view",
      "type": "function"
    },
    {
      "inputs": [
        {
          "internalType": "bytes32",
          "name": "role",
          "type": "bytes32"
        }
      ],
      "name": "getRoleAdmin",
      "outputs": [
        {
          "internalType": "bytes32",
          "name": "",
          "type": "bytes32"
        }
      ],
      "stateMutability": "view",
      "type": "function"
    },
    {
      "inputs": [
        {
          "internalType": "bytes32",
          "name": "role",
          "type": "bytes32"
        },
        {
          "internalType": "address",
          "name": "account",
          "type": "address"
        }
      ],
      "name": "grantRole",
      "outputs": [],
      "stateMutability": "nonpayable",
      "type": "function"
    },
    {
      "inputs": [
        {
          "internalType": "bytes32",
          "name": "role",
          "type": "bytes32"
        },
        {
          "internalType": "address",
          "name": "account",
          "type": "address"
        }
      ],
      "name": "hasRole",
      "outputs": [
        {
          "internalType": "bool",
          "name": "",
          "type": "bool"
        }
      ],
      "stateMutability": "view",
      "type": "function"
    },
    {
      "inputs": [
        {
          "internalType": "address",
          "name": "owner",
          "type": "address"
        },
        {
          "internalType": "address",
          "name": "operator",
          "type": "address"
        }
      ],
      "name": "isApprovedForAll",
      "outputs": [
        {
          "internalType": "bool",
          "name": "",
          "type": "bool"
        }
      ],
      "stateMutability": "view",
      "type": "function"
    },
    {
      "inputs": [],
      "name": "isOnSale",
      "outputs": [
        {
          "internalType": "bool",
          "name": "",
          "type": "bool"
        }
      ],
      "stateMutability": "view",
      "type": "function"
    },
    {
      "inputs": [],
      "name": "maxMintPerTx",
      "outputs": [
        {
          "internalType": "uint256",
          "name": "",
          "type": "uint256"
        }
      ],
      "stateMutability": "view",
      "type": "function"
    },
    {
      "inputs": [],
      "name": "maxToken",
      "outputs": [
        {
          "internalType": "uint256",
          "name": "",
          "type": "uint256"
        }
      ],
      "stateMutability": "view",
      "type": "function"
    },
    {
      "inputs": [],
      "name": "minCost",
      "outputs": [
        {
          "internalType": "uint256",
          "name": "",
          "type": "uint256"
        }
      ],
      "stateMutability": "view",
      "type": "function"
    },
    {
      "inputs": [
        {
          "internalType": "address",
          "name": "recipient",
          "type": "address"
        },
        {
          "internalType": "string",
          "name": "uri",
          "type": "string"
        },
        {
          "internalType": "uint256",
          "name": "qty",
          "type": "uint256"
        }
      ],
      "name": "mint",
      "outputs": [],
      "stateMutability": "nonpayable",
      "type": "function"
    },
    {
      "inputs": [
        {
          "internalType": "uint256",
          "name": "qty",
          "type": "uint256"
        }
      ],
      "name": "mintNFT",
      "outputs": [],
      "stateMutability": "payable",
      "type": "function"
    },
    {
      "inputs": [],
      "name": "name",
      "outputs": [
        {
          "internalType": "string",
          "name": "",
          "type": "string"
        }
      ],
      "stateMutability": "view",
      "type": "function"
    },
    {
      "inputs": [],
      "name": "owner",
      "outputs": [
        {
          "internalType": "address",
          "name": "",
          "type": "address"
        }
      ],
      "stateMutability": "view",
      "type": "function"
    },
    {
      "inputs": [
        {
          "internalType": "uint256",
          "name": "tokenId",
          "type": "uint256"
        }
      ],
      "name": "ownerOf",
      "outputs": [
        {
          "internalType": "address",
          "name": "",
          "type": "address"
        }
      ],
      "stateMutability": "view",
      "type": "function"
    },
    {
      "inputs": [
        {
          "internalType": "address",
          "name": "redeemer",
          "type": "address"
        },
        {
          "components": [
            {
              "internalType": "uint256",
              "name": "minPrice",
              "type": "uint256"
            },
            {
              "internalType": "uint256",
              "name": "supply",
              "type": "uint256"
            },
            {
              "internalType": "uint256",
              "name": "expiration",
              "type": "uint256"
            },
            {
              "internalType": "uint256",
              "name": "maxRedeem",
              "type": "uint256"
            },
            {
              "internalType": "string",
              "name": "uri",
              "type": "string"
            },
            {
              "internalType": "bytes",
              "name": "signature",
              "type": "bytes"
            }
          ],
          "internalType": "struct SmartContract.NFTVoucher",
          "name": "voucher",
          "type": "tuple"
        },
        {
          "internalType": "uint256",
          "name": "qty",
          "type": "uint256"
        }
      ],
      "name": "redeem",
      "outputs": [
        {
          "internalType": "uint256",
          "name": "",
          "type": "uint256"
        }
      ],
      "stateMutability": "payable",
      "type": "function"
    },
    {
      "inputs": [],
      "name": "renounceOwnership",
      "outputs": [],
      "stateMutability": "nonpayable",
      "type": "function"
    },
    {
      "inputs": [
        {
          "internalType": "bytes32",
          "name": "role",
          "type": "bytes32"
        },
        {
          "internalType": "address",
          "name": "account",
          "type": "address"
        }
      ],
      "name": "renounceRole",
      "outputs": [],
      "stateMutability": "nonpayable",
      "type": "function"
    },
    {
      "inputs": [
        {
          "internalType": "bytes32",
          "name": "role",
          "type": "bytes32"
        },
        {
          "internalType": "address",
          "name": "account",
          "type": "address"
        }
      ],
      "name": "revokeRole",
      "outputs": [],
      "stateMutability": "nonpayable",
      "type": "function"
    },
    {
      "inputs": [
        {
          "internalType": "address",
          "name": "from",
          "type": "address"
        },
        {
          "internalType": "address",
          "name": "to",
          "type": "address"
        },
        {
          "internalType": "uint256",
          "name": "tokenId",
          "type": "uint256"
        }
      ],
      "name": "safeTransferFrom",
      "outputs": [],
      "stateMutability": "nonpayable",
      "type": "function"
    },
    {
      "inputs": [
        {
          "internalType": "address",
          "name": "from",
          "type": "address"
        },
        {
          "internalType": "address",
          "name": "to",
          "type": "address"
        },
        {
          "internalType": "uint256",
          "name": "tokenId",
          "type": "uint256"
        },
        {
          "internalType": "bytes",
          "name": "_data",
          "type": "bytes"
        }
      ],
      "name": "safeTransferFrom",
      "outputs": [],
      "stateMutability": "nonpayable",
      "type": "function"
    },
    {
      "inputs": [
        {
          "internalType": "address",
          "name": "operator",
          "type": "address"
        },
        {
          "internalType": "bool",
          "name": "approved",
          "type": "bool"
        }
      ],
      "name": "setApprovalForAll",
      "outputs": [],
      "stateMutability": "nonpayable",
      "type": "function"
    },
    {
      "inputs": [
        {
          "internalType": "string",
          "name": "newBaseURI",
          "type": "string"
        }
      ],
      "name": "setBaseURI",
      "outputs": [],
      "stateMutability": "nonpayable",
      "type": "function"
    },
    {
      "inputs": [
        {
          "internalType": "bool",
          "name": "onSale",
          "type": "bool"
        }
      ],
      "name": "setIsOnSale",
      "outputs": [],
      "stateMutability": "nonpayable",
      "type": "function"
    },
    {
      "inputs": [
        {
          "internalType": "uint256",
          "name": "maxTokenAllow",
          "type": "uint256"
        }
      ],
      "name": "setMaxToken",
      "outputs": [],
      "stateMutability": "nonpayable",
      "type": "function"
    },
    {
      "inputs": [
        {
          "internalType": "uint256",
          "name": "minPrice",
          "type": "uint256"
        }
      ],
      "name": "setMinCost",
      "outputs": [],
      "stateMutability": "nonpayable",
      "type": "function"
    },
    {
      "inputs": [
        {
          "internalType": "uint256",
          "name": "tokenId",
          "type": "uint256"
        },
        {
          "internalType": "string",
          "name": "uri",
          "type": "string"
        }
      ],
      "name": "setTokenURL",
      "outputs": [],
      "stateMutability": "nonpayable",
      "type": "function"
    },
    {
      "inputs": [
        {
          "internalType": "bytes4",
          "name": "interfaceId",
          "type": "bytes4"
        }
      ],
      "name": "supportsInterface",
      "outputs": [
        {
          "internalType": "bool",
          "name": "",
          "type": "bool"
        }
      ],
      "stateMutability": "view",
      "type": "function"
    },
    {
      "inputs": [],
      "name": "symbol",
      "outputs": [
        {
          "internalType": "string",
          "name": "",
          "type": "string"
        }
      ],
      "stateMutability": "view",
      "type": "function"
    },
    {
      "inputs": [],
      "name": "tokenCounter",
      "outputs": [
        {
          "internalType": "uint256",
          "name": "",
          "type": "uint256"
        }
      ],
      "stateMutability": "view",
      "type": "function"
    },
    {
      "inputs": [
        {
          "internalType": "uint256",
          "name": "tokenId",
          "type": "uint256"
        }
      ],
      "name": "tokenURI",
      "outputs": [
        {
          "internalType": "string",
          "name": "",
          "type": "string"
        }
      ],
      "stateMutability": "view",
      "type": "function"
    },
    {
      "inputs": [
        {
          "internalType": "address",
          "name": "from",
          "type": "address"
        },
        {
          "internalType": "address",
          "name": "to",
          "type": "address"
        },
        {
          "internalType": "uint256",
          "name": "tokenId",
          "type": "uint256"
        }
      ],
      "name": "transferFrom",
      "outputs": [],
      "stateMutability": "nonpayable",
      "type": "function"
    },
    {
      "inputs": [
        {
          "internalType": "address",
          "name": "newOwner",
          "type": "address"
        }
      ],
      "name": "transferOwnership",
      "outputs": [],
      "stateMutability": "nonpayable",
      "type": "function"
    },
    {
      "inputs": [],
      "name": "withdraw",
      "outputs": [],
      "stateMutability": "nonpayable",
      "type": "function"
    }
  ],
  "bytecode": "0x610120604052600a600c556001600d60006101000a81548160ff0219169083151502179055503480156200003257600080fd5b506040516200682438038062006824833981810160405281019062000058919062000639565b6040518060400160405280600b81526020017f4e46542d566f75636865720000000000000000000000000000000000000000008152506040518060400160405280600181526020017f31000000000000000000000000000000000000000000000000000000000000008152506040518060400160405280601781526020017f5361766167652057657265776f6c6620536f63696574790000000000000000008152506040518060400160405280600381526020017f5357530000000000000000000000000000000000000000000000000000000000815250816000908051906020019062000148929190620004e9565b50806001908051906020019062000161929190620004e9565b50505060008280519060200120905060008280519060200120905060007f8b73c3c69bb8fe3d512ecc4cf759cc79239f7b179b0ffacaa9a75d522b39400f90508260c081815250508160e081815250504660a08181525050620001cc8184846200026c60201b60201c565b60808181525050806101008181525050505050505062000201620001f5620002a860201b60201c565b620002b060201b60201c565b620002337f9f2df0fed2c77648de5860a4cc508cd0818c85b8b8a1ab4ceeef8d981c8956a6856200037660201b60201c565b82600990805190602001906200024b929190620004e9565b5081600b819055506000600a8190555080600881905550505050506200090f565b6000838383463060405160200162000289959493929190620006f1565b6040516020818303038152906040528051906020012090509392505050565b600033905090565b6000600760009054906101000a900473ffffffffffffffffffffffffffffffffffffffff16905081600760006101000a81548173ffffffffffffffffffffffffffffffffffffffff021916908373ffffffffffffffffffffffffffffffffffffffff1602179055508173ffffffffffffffffffffffffffffffffffffffff168173ffffffffffffffffffffffffffffffffffffffff167f8be0079c531659141344cd1fd0a4f28419497f9722a3daafe3b4186f6b6457e060405160405180910390a35050565b6200038882826200038c60201b60201c565b5050565b6200039e82826200047e60201b60201c565b6200047a5760016006600084815260200190815260200160002060000160008373ffffffffffffffffffffffffffffffffffffffff1673ffffffffffffffffffffffffffffffffffffffff16815260200190815260200160002060006101000a81548160ff0219169083151502179055506200041f620002a860201b60201c565b73ffffffffffffffffffffffffffffffffffffffff168173ffffffffffffffffffffffffffffffffffffffff16837f2f8788117e7eff1d82e926ec794901d17c78024a50270940304540a733656f0d60405160405180910390a45b5050565b60006006600084815260200190815260200160002060000160008373ffffffffffffffffffffffffffffffffffffffff1673ffffffffffffffffffffffffffffffffffffffff16815260200190815260200160002060009054906101000a900460ff16905092915050565b828054620004f79062000847565b90600052602060002090601f0160209004810192826200051b576000855562000567565b82601f106200053657805160ff191683800117855562000567565b8280016001018555821562000567579182015b828111156200056657825182559160200191906001019062000549565b5b5090506200057691906200057a565b5090565b5b80821115620005955760008160009055506001016200057b565b5090565b6000620005b0620005aa8462000782565b6200074e565b905082815260208101848484011115620005c957600080fd5b620005d684828562000811565b509392505050565b600081519050620005ef81620008db565b92915050565b600082601f8301126200060757600080fd5b81516200061984826020860162000599565b91505092915050565b6000815190506200063381620008f5565b92915050565b600080600080608085870312156200065057600080fd5b60006200066087828801620005de565b945050602085015167ffffffffffffffff8111156200067e57600080fd5b6200068c87828801620005f5565b93505060406200069f8782880162000622565b9250506060620006b28782880162000622565b91505092959194509250565b620006c981620007b5565b82525050565b620006da81620007dd565b82525050565b620006eb8162000807565b82525050565b600060a082019050620007086000830188620006cf565b620007176020830187620006cf565b620007266040830186620006cf565b620007356060830185620006e0565b620007446080830184620006be565b9695505050505050565b6000604051905081810181811067ffffffffffffffff82111715620007785762000777620008ac565b5b8060405250919050565b600067ffffffffffffffff821115620007a0576200079f620008ac565b5b601f19601f8301169050602081019050919050565b6000620007c282620007e7565b9050919050565b6000620007d682620007e7565b9050919050565b6000819050919050565b600073ffffffffffffffffffffffffffffffffffffffff82169050919050565b6000819050919050565b60005b838110156200083157808201518184015260208101905062000814565b8381111562000841576000848401525b50505050565b600060028204905060018216806200086057607f821691505b602082108114156200087757620008766200087d565b5b50919050565b7f4e487b7100000000000000000000000000000000000000000000000000000000600052602260045260246000fd5b7f4e487b7100000000000000000000000000000000000000000000000000000000600052604160045260246000fd5b620008e681620007c9565b8114620008f257600080fd5b50565b620009008162000807565b81146200090c57600080fd5b50565b60805160a05160c05160e05161010051615ed0620009546000396000613d7401526000613db601526000613d9501526000613d2101526000613d490152615ed06000f3fe60806040526004361061025c5760003560e01c80636c0360eb11610144578063b88d4fde116100b6578063d53913931161007a578063d5391393146108de578063d547741f14610909578063de7fcb1d14610932578063e985e9c51461095d578063f2fde38b1461099a578063fd57fca5146109c35761025c565b8063b88d4fde146107f9578063ba7aef4314610822578063c87b56dd1461084b578063ca69e32314610888578063d082e381146108b35761025c565b80638da5cb5b116101085780638da5cb5b146106f657806391d1485414610721578063926427441461075e57806395d89b411461077a578063a217fddf146107a5578063a22cb465146107d05761025c565b80636c0360eb1461062157806370a082311461064c578063715018a61461068957806374601c3c146106a0578063890e839f146106cb5761025c565b8063269df4df116101dd57806355c1505c116101a157806355c1505c1461050c57806355f804b31461053c578063564b81ef146105655780635b6a9eb4146105905780636352211e146105bb57806364e89211146105f85761025c565b8063269df4df146104515780632f2ff15d1461047a57806336568abe146104a35780633ccfd60b146104cc57806342842e0e146104e35761025c565b806309acc2cb1161022457806309acc2cb1461035a57806313c738f01461038357806317476362146103ae57806323b872dd146103eb578063248a9ca3146104145761025c565b806301ffc9a714610261578063051dc3331461029e57806306fdde03146102c9578063081812fc146102f4578063095ea7b314610331575b600080fd5b34801561026d57600080fd5b50610288600480360381019061028391906144b7565b6109ec565b60405161029591906153bf565b60405180910390f35b3480156102aa57600080fd5b506102b3610a0e565b6040516102c091906158f0565b60405180910390f35b3480156102d557600080fd5b506102de610a18565b6040516102eb91906154ee565b60405180910390f35b34801561030057600080fd5b5061031b6004803603810190610316919061458b565b610aaa565b6040516103289190615358565b60405180910390f35b34801561033d57600080fd5b50610358600480360381019061035391906143ed565b610b2f565b005b34801561036657600080fd5b50610381600480360381019061037c919061458b565b610c47565b005b34801561038f57600080fd5b50610398610ccd565b6040516103a591906158f0565b60405180910390f35b3480156103ba57600080fd5b506103d560048036038101906103d0919061454a565b610cd7565b6040516103e291906158f0565b60405180910390f35b3480156103f757600080fd5b50610412600480360381019061040d9190614219565b610d4a565b005b34801561042057600080fd5b5061043b60048036038101906104369190614452565b610daa565b60405161044891906153da565b60405180910390f35b34801561045d57600080fd5b50610478600480360381019061047391906145b4565b610dca565b005b34801561048657600080fd5b506104a1600480360381019061049c919061447b565b610e54565b005b3480156104af57600080fd5b506104ca60048036038101906104c5919061447b565b610e7d565b005b3480156104d857600080fd5b506104e1610f00565b005b3480156104ef57600080fd5b5061050a60048036038101906105059190614219565b610fd1565b005b61052660048036038101906105219190614386565b610ff1565b60405161053391906158f0565b60405180910390f35b34801561054857600080fd5b50610563600480360381019061055e9190614509565b611469565b005b34801561057157600080fd5b5061057a6114ff565b60405161058791906158f0565b60405180910390f35b34801561059c57600080fd5b506105a561150c565b6040516105b291906158f0565b60405180910390f35b3480156105c757600080fd5b506105e260048036038101906105dd919061458b565b611512565b6040516105ef9190615358565b60405180910390f35b34801561060457600080fd5b5061061f600480360381019061061a919061458b565b6115c4565b005b34801561062d57600080fd5b5061063661164a565b60405161064391906154ee565b60405180910390f35b34801561065857600080fd5b50610673600480360381019061066e91906141b4565b6116d8565b60405161068091906158f0565b60405180910390f35b34801561069557600080fd5b5061069e611790565b005b3480156106ac57600080fd5b506106b5611818565b6040516106c291906158f0565b60405180910390f35b3480156106d757600080fd5b506106e061182f565b6040516106ed91906153bf565b60405180910390f35b34801561070257600080fd5b5061070b611842565b6040516107189190615358565b60405180910390f35b34801561072d57600080fd5b506107486004803603810190610743919061447b565b61186c565b60405161075591906153bf565b60405180910390f35b6107786004803603810190610773919061458b565b6118d7565b005b34801561078657600080fd5b5061078f611a55565b60405161079c91906154ee565b60405180910390f35b3480156107b157600080fd5b506107ba611ae7565b6040516107c791906153da565b60405180910390f35b3480156107dc57600080fd5b506107f760048036038101906107f291906142e3565b611aee565b005b34801561080557600080fd5b50610820600480360381019061081b9190614268565b611c6f565b005b34801561082e57600080fd5b506108496004803603810190610844919061431f565b611cd1565b005b34801561085757600080fd5b50610872600480360381019061086d919061458b565b611dc3565b60405161087f91906154ee565b60405180910390f35b34801561089457600080fd5b5061089d612169565b6040516108aa91906158f0565b60405180910390f35b3480156108bf57600080fd5b506108c861216f565b6040516108d591906158f0565b60405180910390f35b3480156108ea57600080fd5b506108f3612175565b60405161090091906153da565b60405180910390f35b34801561091557600080fd5b50610930600480360381019061092b919061447b565b612199565b005b34801561093e57600080fd5b506109476121c2565b60405161095491906158f0565b60405180910390f35b34801561096957600080fd5b50610984600480360381019061097f91906141dd565b6121c8565b60405161099191906153bf565b60405180910390f35b3480156109a657600080fd5b506109c160048036038101906109bc91906141b4565b61225c565b005b3480156109cf57600080fd5b506109ea60048036038101906109e59190614429565b612354565b005b60006109f7826123ed565b80610a075750610a06826124cf565b5b9050919050565b6000600b54905090565b606060008054610a2790615ca4565b80601f0160208091040260200160405190810160405280929190818152602001828054610a5390615ca4565b8015610aa05780601f10610a7557610100808354040283529160200191610aa0565b820191906000526020600020905b815481529060010190602001808311610a8357829003601f168201915b5050505050905090565b6000610ab582612549565b610af4576040517f08c379a0000000000000000000000000000000000000000000000000000000008152600401610aeb906157d0565b60405180910390fd5b6004600083815260200190815260200160002060009054906101000a900473ffffffffffffffffffffffffffffffffffffffff169050919050565b6000610b3a82611512565b90508073ffffffffffffffffffffffffffffffffffffffff168373ffffffffffffffffffffffffffffffffffffffff161415610bab576040517f08c379a0000000000000000000000000000000000000000000000000000000008152600401610ba290615870565b60405180910390fd5b8073ffffffffffffffffffffffffffffffffffffffff16610bca6125b5565b73ffffffffffffffffffffffffffffffffffffffff161480610bf95750610bf881610bf36125b5565b6121c8565b5b610c38576040517f08c379a0000000000000000000000000000000000000000000000000000000008152600401610c2f906156d0565b60405180910390fd5b610c4283836125bd565b505050565b610c4f6125b5565b73ffffffffffffffffffffffffffffffffffffffff16610c6d611842565b73ffffffffffffffffffffffffffffffffffffffff1614610cc3576040517f08c379a0000000000000000000000000000000000000000000000000000000008152600401610cba906157f0565b60405180910390fd5b80600b8190555050565b6000600854905090565b60008082602001351415610cf457610ced611818565b9050610d45565b610d42600f838060a00190610d09919061590b565b604051610d179291906152aa565b9081526020016040518091039020548360200135610d359190615b79565b610d3d611818565b612676565b90505b919050565b610d5b610d556125b5565b8261268f565b610d9a576040517f08c379a0000000000000000000000000000000000000000000000000000000008152600401610d91906158b0565b60405180910390fd5b610da583838361276d565b505050565b600060066000838152602001908152602001600020600101549050919050565b610dd26125b5565b73ffffffffffffffffffffffffffffffffffffffff16610df0611842565b73ffffffffffffffffffffffffffffffffffffffff1614610e46576040517f08c379a0000000000000000000000000000000000000000000000000000000008152600401610e3d906157f0565b60405180910390fd5b610e5082826129c9565b5050565b610e5d82610daa565b610e6e81610e696125b5565b612a3d565b610e788383612ada565b505050565b610e856125b5565b73ffffffffffffffffffffffffffffffffffffffff168173ffffffffffffffffffffffffffffffffffffffff1614610ef2576040517f08c379a0000000000000000000000000000000000000000000000000000000008152600401610ee9906158d0565b60405180910390fd5b610efc8282612bbb565b5050565b610f086125b5565b73ffffffffffffffffffffffffffffffffffffffff16610f26611842565b73ffffffffffffffffffffffffffffffffffffffff1614610f7c576040517f08c379a0000000000000000000000000000000000000000000000000000000008152600401610f73906157f0565b60405180910390fd5b600047905060003390508073ffffffffffffffffffffffffffffffffffffffff166108fc839081150290604051600060405180830381858888f19350505050158015610fcc573d6000803e3d6000fd5b505050565b610fec83838360405180602001604052806000815250611c6f565b505050565b600080610ffd84612c9d565b90506110297f9f2df0fed2c77648de5860a4cc508cd0818c85b8b8a1ab4ceeef8d981c8956a68261186c565b611068576040517f08c379a000000000000000000000000000000000000000000000000000000000815260040161105f90615890565b60405180910390fd5b600d60009054906101000a900460ff166110b7576040517f08c379a00000000000000000000000000000000000000000000000000000000081526004016110ae90615670565b60405180910390fd5b83606001358311156110fe576040517f08c379a00000000000000000000000000000000000000000000000000000000081526004016110f590615850565b60405180910390fd5b600b5483600a5461110f9190615a98565b1115611150576040517f08c379a000000000000000000000000000000000000000000000000000000000815260040161114790615850565b60405180910390fd5b836020013583600f868060a00190611168919061590b565b6040516111769291906152aa565b90815260200160405180910390205461118f9190615a98565b1115806111a0575060008460200135145b6111df576040517f08c379a00000000000000000000000000000000000000000000000000000000081526004016111d690615630565b60405180910390fd5b8284600001356111ef9190615b1f565b341015611231576040517f08c379a000000000000000000000000000000000000000000000000000000000815260040161122890615770565b60405180910390fd5b8360400135421115611278576040517f08c379a000000000000000000000000000000000000000000000000000000000815260040161126f90615550565b60405180910390fd5b60005b83811015611342576001600a60008282546112969190615a98565b925050819055506112a982600a54612d0f565b60008580608001906112bb9190615962565b9050111561132257611321600a548680608001906112d99190615962565b8080601f016020809104026020016040519081016040528093929190818152602001838380828437600081840152601f19601f820116905080830192505050505050506129c9565b5b61132f8287600a5461276d565b808061133a90615cd6565b91505061127b565b50600084602001351115611406576000600f858060a00190611364919061590b565b6040516113729291906152aa565b90815260200160405180910390205414156113bf5782600f858060a0019061139a919061590b565b6040516113a89291906152aa565b908152602001604051809103902081905550611405565b82600f858060a001906113d2919061590b565b6040516113e09291906152aa565b908152602001604051809103902060008282546113fd9190615a98565b925050819055505b5b34601060008373ffffffffffffffffffffffffffffffffffffffff1673ffffffffffffffffffffffffffffffffffffffff16815260200190815260200160002060008282546114559190615a98565b92505081905550600a549150509392505050565b6114716125b5565b73ffffffffffffffffffffffffffffffffffffffff1661148f611842565b73ffffffffffffffffffffffffffffffffffffffff16146114e5576040517f08c379a00000000000000000000000000000000000000000000000000000000081526004016114dc906157f0565b60405180910390fd5b80600990805190602001906114fb929190613fa8565b5050565b6000804690508091505090565b60085481565b6000806002600084815260200190815260200160002060009054906101000a900473ffffffffffffffffffffffffffffffffffffffff169050600073ffffffffffffffffffffffffffffffffffffffff168173ffffffffffffffffffffffffffffffffffffffff1614156115bb576040517f08c379a00000000000000000000000000000000000000000000000000000000081526004016115b290615710565b60405180910390fd5b80915050919050565b6115cc6125b5565b73ffffffffffffffffffffffffffffffffffffffff166115ea611842565b73ffffffffffffffffffffffffffffffffffffffff1614611640576040517f08c379a0000000000000000000000000000000000000000000000000000000008152600401611637906157f0565b60405180910390fd5b8060088190555050565b6009805461165790615ca4565b80601f016020809104026020016040519081016040528092919081815260200182805461168390615ca4565b80156116d05780601f106116a5576101008083540402835291602001916116d0565b820191906000526020600020905b8154815290600101906020018083116116b357829003601f168201915b505050505081565b60008073ffffffffffffffffffffffffffffffffffffffff168273ffffffffffffffffffffffffffffffffffffffff161415611749576040517f08c379a0000000000000000000000000000000000000000000000000000000008152600401611740906156f0565b60405180910390fd5b600360008373ffffffffffffffffffffffffffffffffffffffff1673ffffffffffffffffffffffffffffffffffffffff168152602001908152602001600020549050919050565b6117986125b5565b73ffffffffffffffffffffffffffffffffffffffff166117b6611842565b73ffffffffffffffffffffffffffffffffffffffff161461180c576040517f08c379a0000000000000000000000000000000000000000000000000000000008152600401611803906157f0565b60405180910390fd5b6118166000612d2d565b565b6000600a54600b5461182a9190615b79565b905090565b600d60009054906101000a900460ff1681565b6000600760009054906101000a900473ffffffffffffffffffffffffffffffffffffffff16905090565b60006006600084815260200190815260200160002060000160008373ffffffffffffffffffffffffffffffffffffffff1673ffffffffffffffffffffffffffffffffffffffff16815260200190815260200160002060009054906101000a900460ff16905092915050565b600d60009054906101000a900460ff16611926576040517f08c379a000000000000000000000000000000000000000000000000000000000815260040161191d90615670565b60405180910390fd5b600c5481111561196b576040517f08c379a0000000000000000000000000000000000000000000000000000000008152600401611962906156b0565b60405180910390fd5b600b5481600a5461197c9190615a98565b11156119bd576040517f08c379a00000000000000000000000000000000000000000000000000000000081526004016119b490615850565b60405180910390fd5b806008546119cb9190615b1f565b341015611a0d576040517f08c379a0000000000000000000000000000000000000000000000000000000008152600401611a0490615770565b60405180910390fd5b60005b81811015611a51576001600a6000828254611a2b9190615a98565b92505081905550611a3e33600a54612d0f565b8080611a4990615cd6565b915050611a10565b5050565b606060018054611a6490615ca4565b80601f0160208091040260200160405190810160405280929190818152602001828054611a9090615ca4565b8015611add5780601f10611ab257610100808354040283529160200191611add565b820191906000526020600020905b815481529060010190602001808311611ac057829003601f168201915b5050505050905090565b6000801b81565b611af66125b5565b73ffffffffffffffffffffffffffffffffffffffff168273ffffffffffffffffffffffffffffffffffffffff161415611b64576040517f08c379a0000000000000000000000000000000000000000000000000000000008152600401611b5b90615610565b60405180910390fd5b8060056000611b716125b5565b73ffffffffffffffffffffffffffffffffffffffff1673ffffffffffffffffffffffffffffffffffffffff16815260200190815260200160002060008473ffffffffffffffffffffffffffffffffffffffff1673ffffffffffffffffffffffffffffffffffffffff16815260200190815260200160002060006101000a81548160ff0219169083151502179055508173ffffffffffffffffffffffffffffffffffffffff16611c1e6125b5565b73ffffffffffffffffffffffffffffffffffffffff167f17307eab39ab6107e8899845ad3d59bd9653f200f220920489ca2b5937696c3183604051611c6391906153bf565b60405180910390a35050565b611c80611c7a6125b5565b8361268f565b611cbf576040517f08c379a0000000000000000000000000000000000000000000000000000000008152600401611cb6906158b0565b60405180910390fd5b611ccb84848484612df3565b50505050565b611cd96125b5565b73ffffffffffffffffffffffffffffffffffffffff16611cf7611842565b73ffffffffffffffffffffffffffffffffffffffff1614611d4d576040517f08c379a0000000000000000000000000000000000000000000000000000000008152600401611d44906157f0565b60405180910390fd5b60005b81811015611da8576001600a6000828254611d6b9190615a98565b92505081905550611d7e84600a54612d0f565b600083511115611d9557611d94600a54846129c9565b5b8080611da090615cd6565b915050611d50565b50600a54600b5411611dbe57600a54600b819055505b505050565b6060611dce82612549565b611e0d576040517f08c379a0000000000000000000000000000000000000000000000000000000008152600401611e04906157b0565b60405180910390fd5b6000600e60008481526020019081526020016000208054611e2d90615ca4565b80601f0160208091040260200160405190810160405280929190818152602001828054611e5990615ca4565b8015611ea65780601f10611e7b57610100808354040283529160200191611ea6565b820191906000526020600020905b815481529060010190602001808311611e8957829003601f168201915b505050505090506000611eb7612e4f565b9050600081511415611ecd578192505050612164565b600482511115612121576000600467ffffffffffffffff811115611f1a577f4e487b7100000000000000000000000000000000000000000000000000000000600052604160045260246000fd5b6040519080825280601f01601f191660200182016040528015611f4c5781602001600182028036833780820191505090505b50905082600081518110611f89577f4e487b7100000000000000000000000000000000000000000000000000000000600052603260045260246000fd5b602001015160f81c60f81b81600081518110611fce577f4e487b7100000000000000000000000000000000000000000000000000000000600052603260045260246000fd5b60200101907effffffffffffffffffffffffffffffffffffffffffffffffffffffffffffff1916908160001a90535060005b60048110156120c857838181518110612042577f4e487b7100000000000000000000000000000000000000000000000000000000600052603260045260246000fd5b602001015160f81c60f81b828281518110612086577f4e487b7100000000000000000000000000000000000000000000000000000000600052603260045260246000fd5b60200101907effffffffffffffffffffffffffffffffffffffffffffffffffffffffffffff1916908160001a90535080806120c090615cd6565b915050612000565b506040518060400160405280600481526020017f6874747000000000000000000000000000000000000000000000000000000000815250805190602001208180519060200120141561211f57829350505050612164565b505b60008251111561215657808260405160200161213e9291906152c3565b60405160208183030381529060405292505050612164565b61215f84612ee1565b925050505b919050565b600b5481565b600a5481565b7f9f2df0fed2c77648de5860a4cc508cd0818c85b8b8a1ab4ceeef8d981c8956a681565b6121a282610daa565b6121b3816121ae6125b5565b612a3d565b6121bd8383612bbb565b505050565b600c5481565b6000600560008473ffffffffffffffffffffffffffffffffffffffff1673ffffffffffffffffffffffffffffffffffffffff16815260200190815260200160002060008373ffffffffffffffffffffffffffffffffffffffff1673ffffffffffffffffffffffffffffffffffffffff16815260200190815260200160002060009054906101000a900460ff16905092915050565b6122646125b5565b73ffffffffffffffffffffffffffffffffffffffff16612282611842565b73ffffffffffffffffffffffffffffffffffffffff16146122d8576040517f08c379a00000000000000000000000000000000000000000000000000000000081526004016122cf906157f0565b60405180910390fd5b600073ffffffffffffffffffffffffffffffffffffffff168173ffffffffffffffffffffffffffffffffffffffff161415612348576040517f08c379a000000000000000000000000000000000000000000000000000000000815260040161233f906155b0565b60405180910390fd5b61235181612d2d565b50565b61235c6125b5565b73ffffffffffffffffffffffffffffffffffffffff1661237a611842565b73ffffffffffffffffffffffffffffffffffffffff16146123d0576040517f08c379a00000000000000000000000000000000000000000000000000000000081526004016123c7906157f0565b60405180910390fd5b80600d60006101000a81548160ff02191690831515021790555050565b60007f80ac58cd000000000000000000000000000000000000000000000000000000007bffffffffffffffffffffffffffffffffffffffffffffffffffffffff1916827bffffffffffffffffffffffffffffffffffffffffffffffffffffffff191614806124b857507f5b5e139f000000000000000000000000000000000000000000000000000000007bffffffffffffffffffffffffffffffffffffffffffffffffffffffff1916827bffffffffffffffffffffffffffffffffffffffffffffffffffffffff1916145b806124c857506124c782612f88565b5b9050919050565b60007f7965db0b000000000000000000000000000000000000000000000000000000007bffffffffffffffffffffffffffffffffffffffffffffffffffffffff1916827bffffffffffffffffffffffffffffffffffffffffffffffffffffffff191614806125425750612541826123ed565b5b9050919050565b60008073ffffffffffffffffffffffffffffffffffffffff166002600084815260200190815260200160002060009054906101000a900473ffffffffffffffffffffffffffffffffffffffff1673ffffffffffffffffffffffffffffffffffffffff1614159050919050565b600033905090565b816004600083815260200190815260200160002060006101000a81548173ffffffffffffffffffffffffffffffffffffffff021916908373ffffffffffffffffffffffffffffffffffffffff160217905550808273ffffffffffffffffffffffffffffffffffffffff1661263083611512565b73ffffffffffffffffffffffffffffffffffffffff167f8c5be1e5ebec7d5bd14f71427d1e84f3dd0314c0f7b2291e5b200ac8c7c3b92560405160405180910390a45050565b60008183106126855781612687565b825b905092915050565b600061269a82612549565b6126d9576040517f08c379a00000000000000000000000000000000000000000000000000000000081526004016126d090615690565b60405180910390fd5b60006126e483611512565b90508073ffffffffffffffffffffffffffffffffffffffff168473ffffffffffffffffffffffffffffffffffffffff16148061275357508373ffffffffffffffffffffffffffffffffffffffff1661273b84610aaa565b73ffffffffffffffffffffffffffffffffffffffff16145b80612764575061276381856121c8565b5b91505092915050565b8273ffffffffffffffffffffffffffffffffffffffff1661278d82611512565b73ffffffffffffffffffffffffffffffffffffffff16146127e3576040517f08c379a00000000000000000000000000000000000000000000000000000000081526004016127da90615810565b60405180910390fd5b600073ffffffffffffffffffffffffffffffffffffffff168273ffffffffffffffffffffffffffffffffffffffff161415612853576040517f08c379a000000000000000000000000000000000000000000000000000000000815260040161284a906155f0565b60405180910390fd5b61285e838383612ff2565b6128696000826125bd565b6001600360008573ffffffffffffffffffffffffffffffffffffffff1673ffffffffffffffffffffffffffffffffffffffff16815260200190815260200160002060008282546128b99190615b79565b925050819055506001600360008473ffffffffffffffffffffffffffffffffffffffff1673ffffffffffffffffffffffffffffffffffffffff16815260200190815260200160002060008282546129109190615a98565b92505081905550816002600083815260200190815260200160002060006101000a81548173ffffffffffffffffffffffffffffffffffffffff021916908373ffffffffffffffffffffffffffffffffffffffff160217905550808273ffffffffffffffffffffffffffffffffffffffff168473ffffffffffffffffffffffffffffffffffffffff167fddf252ad1be2c89b69c2b068fc378daa952ba7f163c4a11628f55a4df523b3ef60405160405180910390a4505050565b6129d282612549565b612a11576040517f08c379a0000000000000000000000000000000000000000000000000000000008152600401612a0890615730565b60405180910390fd5b80600e60008481526020019081526020016000209080519060200190612a38929190613fa8565b505050565b612a47828261186c565b612ad657612a6c8173ffffffffffffffffffffffffffffffffffffffff166014612ff7565b612a7a8360001c6020612ff7565b604051602001612a8b92919061531e565b6040516020818303038152906040526040517f08c379a0000000000000000000000000000000000000000000000000000000008152600401612acd91906154ee565b60405180910390fd5b5050565b612ae4828261186c565b612bb75760016006600084815260200190815260200160002060000160008373ffffffffffffffffffffffffffffffffffffffff1673ffffffffffffffffffffffffffffffffffffffff16815260200190815260200160002060006101000a81548160ff021916908315150217905550612b5c6125b5565b73ffffffffffffffffffffffffffffffffffffffff168173ffffffffffffffffffffffffffffffffffffffff16837f2f8788117e7eff1d82e926ec794901d17c78024a50270940304540a733656f0d60405160405180910390a45b5050565b612bc5828261186c565b15612c995760006006600084815260200190815260200160002060000160008373ffffffffffffffffffffffffffffffffffffffff1673ffffffffffffffffffffffffffffffffffffffff16815260200190815260200160002060006101000a81548160ff021916908315150217905550612c3e6125b5565b73ffffffffffffffffffffffffffffffffffffffff168173ffffffffffffffffffffffffffffffffffffffff16837ff6391f5c32d9c69d2a47ea670b442974b53935d1edc7fd64eb21e047a839171b60405160405180910390a45b5050565b600080612ca9836132f1565b9050612d0781848060a00190612cbf919061590b565b8080601f016020809104026020016040519081016040528093929190818152602001838380828437600081840152601f19601f82011690508083019250505050505050613388565b915050919050565b612d298282604051806020016040528060008152506133af565b5050565b6000600760009054906101000a900473ffffffffffffffffffffffffffffffffffffffff16905081600760006101000a81548173ffffffffffffffffffffffffffffffffffffffff021916908373ffffffffffffffffffffffffffffffffffffffff1602179055508173ffffffffffffffffffffffffffffffffffffffff168173ffffffffffffffffffffffffffffffffffffffff167f8be0079c531659141344cd1fd0a4f28419497f9722a3daafe3b4186f6b6457e060405160405180910390a35050565b612dfe84848461276d565b612e0a8484848461340a565b612e49576040517f08c379a0000000000000000000000000000000000000000000000000000000008152600401612e4090615590565b60405180910390fd5b50505050565b606060098054612e5e90615ca4565b80601f0160208091040260200160405190810160405280929190818152602001828054612e8a90615ca4565b8015612ed75780601f10612eac57610100808354040283529160200191612ed7565b820191906000526020600020905b815481529060010190602001808311612eba57829003601f168201915b5050505050905090565b6060612eec82612549565b612f2b576040517f08c379a0000000000000000000000000000000000000000000000000000000008152600401612f2290615830565b60405180910390fd5b6000612f35612e4f565b90506000815111612f555760405180602001604052806000815250612f80565b80612f5f846135a1565b604051602001612f709291906152c3565b6040516020818303038152906040525b915050919050565b60007f01ffc9a7000000000000000000000000000000000000000000000000000000007bffffffffffffffffffffffffffffffffffffffffffffffffffffffff1916827bffffffffffffffffffffffffffffffffffffffffffffffffffffffff1916149050919050565b505050565b60606000600283600261300a9190615b1f565b6130149190615a98565b67ffffffffffffffff811115613053577f4e487b7100000000000000000000000000000000000000000000000000000000600052604160045260246000fd5b6040519080825280601f01601f1916602001820160405280156130855781602001600182028036833780820191505090505b5090507f3000000000000000000000000000000000000000000000000000000000000000816000815181106130e3577f4e487b7100000000000000000000000000000000000000000000000000000000600052603260045260246000fd5b60200101907effffffffffffffffffffffffffffffffffffffffffffffffffffffffffffff1916908160001a9053507f78000000000000000000000000000000000000000000000000000000000000008160018151811061316d577f4e487b7100000000000000000000000000000000000000000000000000000000600052603260045260246000fd5b60200101907effffffffffffffffffffffffffffffffffffffffffffffffffffffffffffff1916908160001a905350600060018460026131ad9190615b1f565b6131b79190615a98565b90505b60018111156132a3577f3031323334353637383961626364656600000000000000000000000000000000600f86166010811061321f577f4e487b7100000000000000000000000000000000000000000000000000000000600052603260045260246000fd5b1a60f81b82828151811061325c577f4e487b7100000000000000000000000000000000000000000000000000000000600052603260045260246000fd5b60200101907effffffffffffffffffffffffffffffffffffffffffffffffffffffffffffff1916908160001a905350600485901c94508061329c90615c7a565b90506131ba565b50600084146132e7576040517f08c379a00000000000000000000000000000000000000000000000000000000081526004016132de90615530565b60405180910390fd5b8091505092915050565b60006133817f8ce27378e0eae8db3de962b12f77c4ed5f1b5033528e58ed0e41c6e7e2bf3d82836000013584602001358560400135866060013587806080019061333b9190615962565b6040516133499291906152aa565b604051809103902060405160200161336696959493929190615448565b6040516020818303038152906040528051906020012061374e565b9050919050565b60008060006133978585613768565b915091506133a4816137eb565b819250505092915050565b6133b98383613b3c565b6133c6600084848461340a565b613405576040517f08c379a00000000000000000000000000000000000000000000000000000000081526004016133fc90615590565b60405180910390fd5b505050565b600061342b8473ffffffffffffffffffffffffffffffffffffffff16613d0a565b15613594578373ffffffffffffffffffffffffffffffffffffffff1663150b7a026134546125b5565b8786866040518563ffffffff1660e01b81526004016134769493929190615373565b602060405180830381600087803b15801561349057600080fd5b505af19250505080156134c157506040513d601f19601f820116820180604052508101906134be91906144e0565b60015b613544573d80600081146134f1576040519150601f19603f3d011682016040523d82523d6000602084013e6134f6565b606091505b5060008151141561353c576040517f08c379a000000000000000000000000000000000000000000000000000000000815260040161353390615590565b60405180910390fd5b805181602001fd5b63150b7a0260e01b7bffffffffffffffffffffffffffffffffffffffffffffffffffffffff1916817bffffffffffffffffffffffffffffffffffffffffffffffffffffffff191614915050613599565b600190505b949350505050565b606060008214156135e9576040518060400160405280600181526020017f30000000000000000000000000000000000000000000000000000000000000008152509050613749565b600082905060005b6000821461361b57808061360490615cd6565b915050600a826136149190615aee565b91506135f1565b60008167ffffffffffffffff81111561365d577f4e487b7100000000000000000000000000000000000000000000000000000000600052604160045260246000fd5b6040519080825280601f01601f19166020018201604052801561368f5781602001600182028036833780820191505090505b5090505b60008514613742576001826136a89190615b79565b9150600a856136b79190615d29565b60306136c39190615a98565b60f81b8183815181106136ff577f4e487b7100000000000000000000000000000000000000000000000000000000600052603260045260246000fd5b60200101907effffffffffffffffffffffffffffffffffffffffffffffffffffffffffffff1916908160001a905350600a8561373b9190615aee565b9450613693565b8093505050505b919050565b600061376161375b613d1d565b83613de0565b9050919050565b6000806041835114156137aa5760008060006020860151925060408601519150606086015160001a905061379e87828585613e13565b945094505050506137e4565b6040835114156137db5760008060208501519150604085015190506137d0868383613f20565b9350935050506137e4565b60006002915091505b9250929050565b60006004811115613825577f4e487b7100000000000000000000000000000000000000000000000000000000600052602160045260246000fd5b81600481111561385e577f4e487b7100000000000000000000000000000000000000000000000000000000600052602160045260246000fd5b141561386957613b39565b600160048111156138a3577f4e487b7100000000000000000000000000000000000000000000000000000000600052602160045260246000fd5b8160048111156138dc577f4e487b7100000000000000000000000000000000000000000000000000000000600052602160045260246000fd5b141561391d576040517f08c379a000000000000000000000000000000000000000000000000000000000815260040161391490615510565b60405180910390fd5b60026004811115613957577f4e487b7100000000000000000000000000000000000000000000000000000000600052602160045260246000fd5b816004811115613990577f4e487b7100000000000000000000000000000000000000000000000000000000600052602160045260246000fd5b14156139d1576040517f08c379a00000000000000000000000000000000000000000000000000000000081526004016139c890615570565b60405180910390fd5b60036004811115613a0b577f4e487b7100000000000000000000000000000000000000000000000000000000600052602160045260246000fd5b816004811115613a44577f4e487b7100000000000000000000000000000000000000000000000000000000600052602160045260246000fd5b1415613a85576040517f08c379a0000000000000000000000000000000000000000000000000000000008152600401613a7c90615650565b60405180910390fd5b600480811115613abe577f4e487b7100000000000000000000000000000000000000000000000000000000600052602160045260246000fd5b816004811115613af7577f4e487b7100000000000000000000000000000000000000000000000000000000600052602160045260246000fd5b1415613b38576040517f08c379a0000000000000000000000000000000000000000000000000000000008152600401613b2f90615750565b60405180910390fd5b5b50565b600073ffffffffffffffffffffffffffffffffffffffff168273ffffffffffffffffffffffffffffffffffffffff161415613bac576040517f08c379a0000000000000000000000000000000000000000000000000000000008152600401613ba390615790565b60405180910390fd5b613bb581612549565b15613bf5576040517f08c379a0000000000000000000000000000000000000000000000000000000008152600401613bec906155d0565b60405180910390fd5b613c0160008383612ff2565b6001600360008473ffffffffffffffffffffffffffffffffffffffff1673ffffffffffffffffffffffffffffffffffffffff1681526020019081526020016000206000828254613c519190615a98565b92505081905550816002600083815260200190815260200160002060006101000a81548173ffffffffffffffffffffffffffffffffffffffff021916908373ffffffffffffffffffffffffffffffffffffffff160217905550808273ffffffffffffffffffffffffffffffffffffffff16600073ffffffffffffffffffffffffffffffffffffffff167fddf252ad1be2c89b69c2b068fc378daa952ba7f163c4a11628f55a4df523b3ef60405160405180910390a45050565b600080823b905060008111915050919050565b60007f0000000000000000000000000000000000000000000000000000000000000000461415613d6f577f00000000000000000000000000000000000000000000000000000000000000009050613ddd565b613dda7f00000000000000000000000000000000000000000000000000000000000000007f00000000000000000000000000000000000000000000000000000000000000007f0000000000000000000000000000000000000000000000000000000000000000613f6e565b90505b90565b60008282604051602001613df59291906152e7565b60405160208183030381529060405280519060200120905092915050565b6000807f7fffffffffffffffffffffffffffffff5d576e7357a4501ddfe92f46681b20a08360001c1115613e4e576000600391509150613f17565b601b8560ff1614158015613e665750601c8560ff1614155b15613e78576000600491509150613f17565b600060018787878760405160008152602001604052604051613e9d94939291906154a9565b6020604051602081039080840390855afa158015613ebf573d6000803e3d6000fd5b505050602060405103519050600073ffffffffffffffffffffffffffffffffffffffff168173ffffffffffffffffffffffffffffffffffffffff161415613f0e57600060019250925050613f17565b80600092509250505b94509492505050565b6000806000807f7fffffffffffffffffffffffffffffffffffffffffffffffffffffffffffffff85169150601b8560ff1c019050613f6087828885613e13565b935093505050935093915050565b60008383834630604051602001613f899594939291906153f5565b6040516020818303038152906040528051906020012090509392505050565b828054613fb490615ca4565b90600052602060002090601f016020900481019282613fd6576000855561401d565b82601f10613fef57805160ff191683800117855561401d565b8280016001018555821561401d579182015b8281111561401c578251825591602001919060010190614001565b5b50905061402a919061402e565b5090565b5b8082111561404757600081600090555060010161402f565b5090565b600061405e614059846159ea565b6159b9565b90508281526020810184848401111561407657600080fd5b614081848285615c38565b509392505050565b600061409c61409784615a1a565b6159b9565b9050828152602081018484840111156140b457600080fd5b6140bf848285615c38565b509392505050565b6000813590506140d681615e27565b92915050565b6000813590506140eb81615e3e565b92915050565b60008135905061410081615e55565b92915050565b60008135905061411581615e6c565b92915050565b60008151905061412a81615e6c565b92915050565b600082601f83011261414157600080fd5b813561415184826020860161404b565b91505092915050565b600082601f83011261416b57600080fd5b813561417b848260208601614089565b91505092915050565b600060c0828403121561419657600080fd5b81905092915050565b6000813590506141ae81615e83565b92915050565b6000602082840312156141c657600080fd5b60006141d4848285016140c7565b91505092915050565b600080604083850312156141f057600080fd5b60006141fe858286016140c7565b925050602061420f858286016140c7565b9150509250929050565b60008060006060848603121561422e57600080fd5b600061423c868287016140c7565b935050602061424d868287016140c7565b925050604061425e8682870161419f565b9150509250925092565b6000806000806080858703121561427e57600080fd5b600061428c878288016140c7565b945050602061429d878288016140c7565b93505060406142ae8782880161419f565b925050606085013567ffffffffffffffff8111156142cb57600080fd5b6142d787828801614130565b91505092959194509250565b600080604083850312156142f657600080fd5b6000614304858286016140c7565b9250506020614315858286016140dc565b9150509250929050565b60008060006060848603121561433457600080fd5b6000614342868287016140c7565b935050602084013567ffffffffffffffff81111561435f57600080fd5b61436b8682870161415a565b925050604061437c8682870161419f565b9150509250925092565b60008060006060848603121561439b57600080fd5b60006143a9868287016140c7565b935050602084013567ffffffffffffffff8111156143c657600080fd5b6143d286828701614184565b92505060406143e38682870161419f565b9150509250925092565b6000806040838503121561440057600080fd5b600061440e858286016140c7565b925050602061441f8582860161419f565b9150509250929050565b60006020828403121561443b57600080fd5b6000614449848285016140dc565b91505092915050565b60006020828403121561446457600080fd5b6000614472848285016140f1565b91505092915050565b6000806040838503121561448e57600080fd5b600061449c858286016140f1565b92505060206144ad858286016140c7565b9150509250929050565b6000602082840312156144c957600080fd5b60006144d784828501614106565b91505092915050565b6000602082840312156144f257600080fd5b60006145008482850161411b565b91505092915050565b60006020828403121561451b57600080fd5b600082013567ffffffffffffffff81111561453557600080fd5b6145418482850161415a565b91505092915050565b60006020828403121561455c57600080fd5b600082013567ffffffffffffffff81111561457657600080fd5b61458284828501614184565b91505092915050565b60006020828403121561459d57600080fd5b60006145ab8482850161419f565b91505092915050565b600080604083850312156145c757600080fd5b60006145d58582860161419f565b925050602083013567ffffffffffffffff8111156145f257600080fd5b6145fe8582860161415a565b9150509250929050565b61461181615bad565b82525050565b61462081615bbf565b82525050565b61462f81615bcb565b82525050565b61464661464182615bcb565b615d1f565b82525050565b60006146588385615a71565b9350614665838584615c38565b82840190509392505050565b600061467c82615a4a565b6146868185615a60565b9350614696818560208601615c47565b61469f81615e16565b840191505092915050565b60006146b582615a55565b6146bf8185615a7c565b93506146cf818560208601615c47565b6146d881615e16565b840191505092915050565b60006146ee82615a55565b6146f88185615a8d565b9350614708818560208601615c47565b80840191505092915050565b6000614721601883615a7c565b91507f45434453413a20696e76616c6964207369676e617475726500000000000000006000830152602082019050919050565b6000614761602083615a7c565b91507f537472696e67733a20686578206c656e67746820696e73756666696369656e746000830152602082019050919050565b60006147a1601283615a7c565b91507f566f7563686572206973206578706972656400000000000000000000000000006000830152602082019050919050565b60006147e1601f83615a7c565b91507f45434453413a20696e76616c6964207369676e6174757265206c656e677468006000830152602082019050919050565b6000614821603283615a7c565b91507f4552433732313a207472616e7366657220746f206e6f6e20455243373231526560008301527f63656976657220696d706c656d656e74657200000000000000000000000000006020830152604082019050919050565b6000614887602683615a7c565b91507f4f776e61626c653a206e6577206f776e657220697320746865207a65726f206160008301527f64647265737300000000000000000000000000000000000000000000000000006020830152604082019050919050565b60006148ed601c83615a7c565b91507f4552433732313a20746f6b656e20616c7265616479206d696e746564000000006000830152602082019050919050565b600061492d600283615a8d565b91507f19010000000000000000000000000000000000000000000000000000000000006000830152600282019050919050565b600061496d602483615a7c565b91507f4552433732313a207472616e7366657220746f20746865207a65726f2061646460008301527f72657373000000000000000000000000000000000000000000000000000000006020830152604082019050919050565b60006149d3601983615a7c565b91507f4552433732313a20617070726f766520746f2063616c6c6572000000000000006000830152602082019050919050565b6000614a13601b83615a7c565b91507f566f756368657273206172652066756c6c792072656465656d656400000000006000830152602082019050919050565b6000614a53602283615a7c565b91507f45434453413a20696e76616c6964207369676e6174757265202773272076616c60008301527f75650000000000000000000000000000000000000000000000000000000000006020830152604082019050919050565b6000614ab9601b83615a7c565b91507f53616c65206d7573742062652061637469766520746f206d696e7400000000006000830152602082019050919050565b6000614af9602c83615a7c565b91507f4552433732313a206f70657261746f7220717565727920666f72206e6f6e657860008301527f697374656e7420746f6b656e00000000000000000000000000000000000000006020830152604082019050919050565b6000614b5f602183615a7c565b91507f43616e206f6e6c79206d696e7420323020746f6b656e7320617420612074696d60008301527f65000000000000000000000000000000000000000000000000000000000000006020830152604082019050919050565b6000614bc5603883615a7c565b91507f4552433732313a20617070726f76652063616c6c6572206973206e6f74206f7760008301527f6e6572206e6f7220617070726f76656420666f7220616c6c00000000000000006020830152604082019050919050565b6000614c2b602a83615a7c565b91507f4552433732313a2062616c616e636520717565727920666f7220746865207a6560008301527f726f2061646472657373000000000000000000000000000000000000000000006020830152604082019050919050565b6000614c91602983615a7c565b91507f4552433732313a206f776e657220717565727920666f72206e6f6e657869737460008301527f656e7420746f6b656e00000000000000000000000000000000000000000000006020830152604082019050919050565b6000614cf7602e83615a7c565b91507f45524337323155524953746f726167653a2055524920736574206f66206e6f6e60008301527f6578697374656e7420746f6b656e0000000000000000000000000000000000006020830152604082019050919050565b6000614d5d602283615a7c565b91507f45434453413a20696e76616c6964207369676e6174757265202776272076616c60008301527f75650000000000000000000000000000000000000000000000000000000000006020830152604082019050919050565b6000614dc3601c83615a7c565b91507f496e73756666696369656e742066756e647320746f2072656465656d000000006000830152602082019050919050565b6000614e03602083615a7c565b91507f4552433732313a206d696e7420746f20746865207a65726f20616464726573736000830152602082019050919050565b6000614e43603183615a7c565b91507f45524337323155524953746f726167653a2055524920717565727920666f722060008301527f6e6f6e6578697374656e7420746f6b656e0000000000000000000000000000006020830152604082019050919050565b6000614ea9602c83615a7c565b91507f4552433732313a20617070726f76656420717565727920666f72206e6f6e657860008301527f697374656e7420746f6b656e00000000000000000000000000000000000000006020830152604082019050919050565b6000614f0f602083615a7c565b91507f4f776e61626c653a2063616c6c6572206973206e6f7420746865206f776e65726000830152602082019050919050565b6000614f4f602983615a7c565b91507f4552433732313a207472616e73666572206f6620746f6b656e2074686174206960008301527f73206e6f74206f776e00000000000000000000000000000000000000000000006020830152604082019050919050565b6000614fb5602f83615a7c565b91507f4552433732314d657461646174613a2055524920717565727920666f72206e6f60008301527f6e6578697374656e7420746f6b656e00000000000000000000000000000000006020830152604082019050919050565b600061501b602383615a7c565b91507f507572636861736520776f756c6420657863656564206d6178206176616c696160008301527f626c6500000000000000000000000000000000000000000000000000000000006020830152604082019050919050565b6000615081602183615a7c565b91507f4552433732313a20617070726f76616c20746f2063757272656e74206f776e6560008301527f72000000000000000000000000000000000000000000000000000000000000006020830152604082019050919050565b60006150e7602183615a7c565b91507f5369676e617475726520696e76616c6964206f7220756e617574686f72697a6560008301527f64000000000000000000000000000000000000000000000000000000000000006020830152604082019050919050565b600061514d603183615a7c565b91507f4552433732313a207472616e736665722063616c6c6572206973206e6f74206f60008301527f776e6572206e6f7220617070726f7665640000000000000000000000000000006020830152604082019050919050565b60006151b3601783615a8d565b91507f416363657373436f6e74726f6c3a206163636f756e74200000000000000000006000830152601782019050919050565b60006151f3601183615a8d565b91507f206973206d697373696e6720726f6c65200000000000000000000000000000006000830152601182019050919050565b6000615233602f83615a7c565b91507f416363657373436f6e74726f6c3a2063616e206f6e6c792072656e6f756e636560008301527f20726f6c657320666f722073656c6600000000000000000000000000000000006020830152604082019050919050565b61529581615c21565b82525050565b6152a481615c2b565b82525050565b60006152b782848661464c565b91508190509392505050565b60006152cf82856146e3565b91506152db82846146e3565b91508190509392505050565b60006152f282614920565b91506152fe8285614635565b60208201915061530e8284614635565b6020820191508190509392505050565b6000615329826151a6565b915061533582856146e3565b9150615340826151e6565b915061534c82846146e3565b91508190509392505050565b600060208201905061536d6000830184614608565b92915050565b60006080820190506153886000830187614608565b6153956020830186614608565b6153a2604083018561528c565b81810360608301526153b48184614671565b905095945050505050565b60006020820190506153d46000830184614617565b92915050565b60006020820190506153ef6000830184614626565b92915050565b600060a08201905061540a6000830188614626565b6154176020830187614626565b6154246040830186614626565b615431606083018561528c565b61543e6080830184614608565b9695505050505050565b600060c08201905061545d6000830189614626565b61546a602083018861528c565b615477604083018761528c565b615484606083018661528c565b615491608083018561528c565b61549e60a0830184614626565b979650505050505050565b60006080820190506154be6000830187614626565b6154cb602083018661529b565b6154d86040830185614626565b6154e56060830184614626565b95945050505050565b6000602082019050818103600083015261550881846146aa565b905092915050565b6000602082019050818103600083015261552981614714565b9050919050565b6000602082019050818103600083015261554981614754565b9050919050565b6000602082019050818103600083015261556981614794565b9050919050565b60006020820190508181036000830152615589816147d4565b9050919050565b600060208201905081810360008301526155a981614814565b9050919050565b600060208201905081810360008301526155c98161487a565b9050919050565b600060208201905081810360008301526155e9816148e0565b9050919050565b6000602082019050818103600083015261560981614960565b9050919050565b60006020820190508181036000830152615629816149c6565b9050919050565b6000602082019050818103600083015261564981614a06565b9050919050565b6000602082019050818103600083015261566981614a46565b9050919050565b6000602082019050818103600083015261568981614aac565b9050919050565b600060208201905081810360008301526156a981614aec565b9050919050565b600060208201905081810360008301526156c981614b52565b9050919050565b600060208201905081810360008301526156e981614bb8565b9050919050565b6000602082019050818103600083015261570981614c1e565b9050919050565b6000602082019050818103600083015261572981614c84565b9050919050565b6000602082019050818103600083015261574981614cea565b9050919050565b6000602082019050818103600083015261576981614d50565b9050919050565b6000602082019050818103600083015261578981614db6565b9050919050565b600060208201905081810360008301526157a981614df6565b9050919050565b600060208201905081810360008301526157c981614e36565b9050919050565b600060208201905081810360008301526157e981614e9c565b9050919050565b6000602082019050818103600083015261580981614f02565b9050919050565b6000602082019050818103600083015261582981614f42565b9050919050565b6000602082019050818103600083015261584981614fa8565b9050919050565b600060208201905081810360008301526158698161500e565b9050919050565b6000602082019050818103600083015261588981615074565b9050919050565b600060208201905081810360008301526158a9816150da565b9050919050565b600060208201905081810360008301526158c981615140565b9050919050565b600060208201905081810360008301526158e981615226565b9050919050565b6000602082019050615905600083018461528c565b92915050565b6000808335600160200384360303811261592457600080fd5b80840192508235915067ffffffffffffffff82111561594257600080fd5b60208301925060018202360383131561595a57600080fd5b509250929050565b6000808335600160200384360303811261597b57600080fd5b80840192508235915067ffffffffffffffff82111561599957600080fd5b6020830192506001820236038313156159b157600080fd5b509250929050565b6000604051905081810181811067ffffffffffffffff821117156159e0576159df615de7565b5b8060405250919050565b600067ffffffffffffffff821115615a0557615a04615de7565b5b601f19601f8301169050602081019050919050565b600067ffffffffffffffff821115615a3557615a34615de7565b5b601f19601f8301169050602081019050919050565b600081519050919050565b600081519050919050565b600082825260208201905092915050565b600081905092915050565b600082825260208201905092915050565b600081905092915050565b6000615aa382615c21565b9150615aae83615c21565b9250827fffffffffffffffffffffffffffffffffffffffffffffffffffffffffffffffff03821115615ae357615ae2615d5a565b5b828201905092915050565b6000615af982615c21565b9150615b0483615c21565b925082615b1457615b13615d89565b5b828204905092915050565b6000615b2a82615c21565b9150615b3583615c21565b9250817fffffffffffffffffffffffffffffffffffffffffffffffffffffffffffffffff0483118215151615615b6e57615b6d615d5a565b5b828202905092915050565b6000615b8482615c21565b9150615b8f83615c21565b925082821015615ba257615ba1615d5a565b5b828203905092915050565b6000615bb882615c01565b9050919050565b60008115159050919050565b6000819050919050565b60007fffffffff0000000000000000000000000000000000000000000000000000000082169050919050565b600073ffffffffffffffffffffffffffffffffffffffff82169050919050565b6000819050919050565b600060ff82169050919050565b82818337600083830152505050565b60005b83811015615c65578082015181840152602081019050615c4a565b83811115615c74576000848401525b50505050565b6000615c8582615c21565b91506000821415615c9957615c98615d5a565b5b600182039050919050565b60006002820490506001821680615cbc57607f821691505b60208210811415615cd057615ccf615db8565b5b50919050565b6000615ce182615c21565b91507fffffffffffffffffffffffffffffffffffffffffffffffffffffffffffffffff821415615d1457615d13615d5a565b5b600182019050919050565b6000819050919050565b6000615d3482615c21565b9150615d3f83615c21565b925082615d4f57615d4e615d89565b5b828206905092915050565b7f4e487b7100000000000000000000000000000000000000000000000000000000600052601160045260246000fd5b7f4e487b7100000000000000000000000000000000000000000000000000000000600052601260045260246000fd5b7f4e487b7100000000000000000000000000000000000000000000000000000000600052602260045260246000fd5b7f4e487b7100000000000000000000000000000000000000000000000000000000600052604160045260246000fd5b6000601f19601f8301169050919050565b615e3081615bad565b8114615e3b57600080fd5b50565b615e4781615bbf565b8114615e5257600080fd5b50565b615e5e81615bcb565b8114615e6957600080fd5b50565b615e7581615bd5565b8114615e8057600080fd5b50565b615e8c81615c21565b8114615e9757600080fd5b5056fea26469706673582212203651156bdeca8d26e4cbd89e95cc1991971ae05b0e86d2ef0ecab2f2a116341264736f6c63430008000033",
  "linkReferences": {},
  "deployedLinkReferences": {}
}